{
  "address": "0xA3740E43FD85AadDB2Fc2754ff0C03C134337219",
  "abi": [
    {
      "constant": true,
      "inputs": [
        {
          "name": "_interfaceId",
          "type": "bytes4"
        }
      ],
      "name": "supportsInterface",
      "outputs": [
        {
          "name": "",
          "type": "bool"
        }
      ],
      "payable": false,
      "stateMutability": "pure",
      "type": "function"
    },
    {
      "constant": true,
      "inputs": [],
      "name": "hasInitialized",
      "outputs": [
        {
          "name": "",
          "type": "bool"
        }
      ],
      "payable": false,
      "stateMutability": "view",
      "type": "function"
    },
    {
      "constant": true,
      "inputs": [],
      "name": "commonPoolToken",
      "outputs": [
        {
          "name": "",
          "type": "address"
        }
      ],
      "payable": false,
      "stateMutability": "view",
      "type": "function"
    },
    {
      "constant": true,
      "inputs": [
        {
          "name": "_script",
          "type": "bytes"
        }
      ],
      "name": "getEVMScriptExecutor",
      "outputs": [
        {
          "name": "",
          "type": "address"
        }
      ],
      "payable": false,
      "stateMutability": "view",
      "type": "function"
    },
    {
      "constant": true,
      "inputs": [],
      "name": "getRecoveryVault",
      "outputs": [
        {
          "name": "",
          "type": "address"
        }
      ],
      "payable": false,
      "stateMutability": "view",
      "type": "function"
    },
    {
      "constant": false,
      "inputs": [],
      "name": "executeAdjustment",
      "outputs": [],
      "payable": false,
      "stateMutability": "nonpayable",
      "type": "function"
    },
    {
      "constant": true,
      "inputs": [],
      "name": "previousAdjustmentSecond",
      "outputs": [
        {
          "name": "",
          "type": "uint256"
        }
      ],
      "payable": false,
      "stateMutability": "view",
      "type": "function"
    },
    {
      "constant": true,
      "inputs": [],
      "name": "UPDATE_SETTINGS_ROLE",
      "outputs": [
        {
          "name": "",
          "type": "bytes32"
        }
      ],
      "payable": false,
      "stateMutability": "view",
      "type": "function"
    },
    {
      "constant": true,
      "inputs": [],
      "name": "commonPoolTokenManager",
      "outputs": [
        {
          "name": "",
          "type": "address"
        }
      ],
      "payable": false,
      "stateMutability": "view",
      "type": "function"
    },
    {
      "constant": true,
      "inputs": [],
      "name": "targetRatio",
      "outputs": [
        {
          "name": "",
          "type": "uint256"
        }
      ],
      "payable": false,
      "stateMutability": "view",
      "type": "function"
    },
    {
      "constant": false,
      "inputs": [
        {
          "name": "_commonPoolFundsManager",
          "type": "address"
        }
      ],
      "name": "updateFundsManager",
      "outputs": [],
      "payable": false,
      "stateMutability": "nonpayable",
      "type": "function"
    },
    {
      "constant": true,
      "inputs": [],
      "name": "maxAdjustmentRatioPerSecond",
      "outputs": [
        {
          "name": "",
          "type": "uint256"
        }
      ],
      "payable": false,
      "stateMutability": "view",
      "type": "function"
    },
    {
      "constant": true,
      "inputs": [
        {
          "name": "token",
          "type": "address"
        }
      ],
      "name": "allowRecoverability",
      "outputs": [
        {
          "name": "",
          "type": "bool"
        }
      ],
      "payable": false,
      "stateMutability": "view",
      "type": "function"
    },
    {
      "constant": true,
      "inputs": [],
      "name": "appId",
      "outputs": [
        {
          "name": "",
          "type": "bytes32"
        }
      ],
      "payable": false,
      "stateMutability": "view",
      "type": "function"
    },
    {
      "constant": true,
      "inputs": [],
      "name": "getInitializationBlock",
      "outputs": [
        {
          "name": "",
          "type": "uint256"
        }
      ],
      "payable": false,
      "stateMutability": "view",
      "type": "function"
    },
    {
      "constant": false,
      "inputs": [
        {
          "name": "_maxAdjustmentRatioPerSecond",
          "type": "uint256"
        }
      ],
      "name": "updateMaxAdjustmentRatioPerSecond",
      "outputs": [],
      "payable": false,
      "stateMutability": "nonpayable",
      "type": "function"
    },
    {
      "constant": false,
      "inputs": [
        {
          "name": "_token",
          "type": "address"
        }
      ],
      "name": "transferToVault",
      "outputs": [],
      "payable": false,
      "stateMutability": "nonpayable",
      "type": "function"
    },
    {
      "constant": true,
      "inputs": [],
      "name": "commonPoolFundsManager",
      "outputs": [
        {
          "name": "",
          "type": "address"
        }
      ],
      "payable": false,
      "stateMutability": "view",
      "type": "function"
    },
    {
      "constant": true,
      "inputs": [
        {
          "name": "_sender",
          "type": "address"
        },
        {
          "name": "_role",
          "type": "bytes32"
        },
        {
          "name": "_params",
          "type": "uint256[]"
        }
      ],
      "name": "canPerform",
      "outputs": [
        {
          "name": "",
          "type": "bool"
        }
      ],
      "payable": false,
      "stateMutability": "view",
      "type": "function"
    },
    {
      "constant": true,
      "inputs": [],
      "name": "getEVMScriptRegistry",
      "outputs": [
        {
          "name": "",
          "type": "address"
        }
      ],
      "payable": false,
      "stateMutability": "view",
      "type": "function"
    },
    {
      "constant": true,
      "inputs": [],
      "name": "RATIO_PRECISION",
      "outputs": [
        {
          "name": "",
          "type": "uint256"
        }
      ],
      "payable": false,
      "stateMutability": "view",
      "type": "function"
    },
    {
      "constant": true,
      "inputs": [],
      "name": "kernel",
      "outputs": [
        {
          "name": "",
          "type": "address"
        }
      ],
      "payable": false,
      "stateMutability": "view",
      "type": "function"
    },
    {
      "constant": false,
      "inputs": [
        {
          "name": "_targetRatio",
          "type": "uint256"
        }
      ],
      "name": "updateTargetRatio",
      "outputs": [],
      "payable": false,
      "stateMutability": "nonpayable",
      "type": "function"
    },
    {
      "constant": true,
      "inputs": [],
      "name": "isPetrified",
      "outputs": [
        {
          "name": "",
          "type": "bool"
        }
      ],
      "payable": false,
      "stateMutability": "view",
      "type": "function"
    },
    {
      "constant": false,
      "inputs": [
        {
          "name": "_commonPoolTokenManager",
          "type": "address"
        },
        {
          "name": "_commonPoolFundsManager",
          "type": "address"
        },
        {
          "name": "_targetRatio",
          "type": "uint256"
        },
        {
          "name": "_maxAdjustmentRatioPerSecond",
          "type": "uint256"
        }
      ],
      "name": "initialize",
      "outputs": [],
      "payable": false,
      "stateMutability": "nonpayable",
      "type": "function"
    },
    {
      "constant": true,
      "inputs": [],
      "name": "ERROR_TARGET_RATIO_TOO_HIGH",
      "outputs": [
        {
          "name": "",
          "type": "string"
        }
      ],
      "payable": false,
      "stateMutability": "view",
      "type": "function"
    },
    {
      "constant": true,
      "inputs": [],
      "name": "EXTRA_PRECISION",
      "outputs": [
        {
          "name": "",
          "type": "uint256"
        }
      ],
      "payable": false,
      "stateMutability": "view",
      "type": "function"
    },
    {
      "anonymous": false,
      "inputs": [
        {
          "indexed": false,
          "name": "adjustmentAmount",
          "type": "uint256"
        },
        {
          "indexed": false,
          "name": "positive",
          "type": "bool"
        }
      ],
      "name": "AdjustmentMade",
      "type": "event"
    },
    {
      "anonymous": false,
      "inputs": [
        {
          "indexed": false,
          "name": "targetRatio",
          "type": "uint256"
        }
      ],
      "name": "TargetRatioUpdated",
      "type": "event"
    },
    {
      "anonymous": false,
      "inputs": [
        {
          "indexed": false,
          "name": "fundsManager",
          "type": "address"
        }
      ],
      "name": "FundsManagerUpdated",
      "type": "event"
    },
    {
      "anonymous": false,
      "inputs": [
        {
          "indexed": false,
          "name": "maxAdjustmentRatioPerSecond",
          "type": "uint256"
        }
      ],
      "name": "MaxAdjustmentRatioPerSecondUpdated",
      "type": "event"
    },
    {
      "anonymous": false,
      "inputs": [
        {
          "indexed": true,
          "name": "executor",
          "type": "address"
        },
        {
          "indexed": false,
          "name": "script",
          "type": "bytes"
        },
        {
          "indexed": false,
          "name": "input",
          "type": "bytes"
        },
        {
          "indexed": false,
          "name": "returnData",
          "type": "bytes"
        }
      ],
      "name": "ScriptResult",
      "type": "event"
    },
    {
      "anonymous": false,
      "inputs": [
        {
          "indexed": true,
          "name": "vault",
          "type": "address"
        },
        {
          "indexed": true,
          "name": "token",
          "type": "address"
        },
        {
          "indexed": false,
          "name": "amount",
          "type": "uint256"
        }
      ],
      "name": "RecoverToVault",
      "type": "event"
    }
  ],
  "transactionHash": "0x677126eac660cefc567a140594c6788b2518e98ba9be0b29a5d7a32bb8dc7eab",
  "args": [],
  "numDeployments": 1,
  "solcInputHash": "fb84b24c898241952cf167b2b7b6662a",
  "bytecode": "0x6080604052620000176401000000006200001d810204565b6200023b565b6200003064010000000062000125810204565b60408051808201909152601881527f494e49545f414c52454144595f494e495449414c495a45440000000000000000602082015290156200010c576040517f08c379a00000000000000000000000000000000000000000000000000000000081526004018080602001828103825283818151815260200191508051906020019080838360005b83811015620000d0578181015183820152602001620000b6565b50505050905090810190601f168015620000fe5780820380516001836020036101000a031916815260200191505b509250505060405180910390fd5b506200012360001964010000000062000154810204565b565b60006200014f6000805160206200251d83398151915264010000000062001f0f6200023382021704565b905090565b6200016764010000000062000125810204565b60408051808201909152601881527f494e49545f414c52454144595f494e495449414c495a454400000000000000006020820152901562000206576040517f08c379a000000000000000000000000000000000000000000000000000000000815260040180806020018281038252838181518152602001915080519060200190808383600083811015620000d0578181015183820152602001620000b6565b50620002306000805160206200251d83398151915282640100000000620022a26200023782021704565b50565b5490565b9055565b6122d2806200024b6000396000f30060806040526004361061015e5763ffffffff7c010000000000000000000000000000000000000000000000000000000060003504166301ffc9a781146101635780630803fac0146101b15780630c06fe0a146101c65780632914b9bd1461020457806332f0a3b51461025d57806336918b03146102725780634a8eac6c146102895780634f629fbb146102b05780634f9527b9146102c55780635a08bd17146102da5780637222b226146102ef57806378fceee61461031d5780637e7db6e11461033257806380afdea8146103605780638b3dd749146103755780639cb298081461038a5780639d4941d8146103a25780639e6dfed5146103d0578063a1658fad146103e5578063a479e50814610459578063d32867d01461046e578063d4aae0c414610483578063dab6ae4514610498578063de4796ed146104b0578063eb990c59146104c5578063ed6f8465146104ff578063ffaa3b2314610589575b600080fd5b34801561016f57600080fd5b5061019d7fffffffff000000000000000000000000000000000000000000000000000000006004351661059e565b604080519115158252519081900360200190f35b3480156101bd57600080fd5b5061019d6105fb565b3480156101d257600080fd5b506101db610624565b6040805173ffffffffffffffffffffffffffffffffffffffff9092168252519081900360200190f35b34801561021057600080fd5b506040805160206004803580820135601f81018490048402850184019095528484526101db9436949293602493928401919081908401838280828437509497506106409650505050505050565b34801561026957600080fd5b506101db61074c565b34801561027e57600080fd5b506102876107ea565b005b34801561029557600080fd5b5061029e610d52565b60408051918252519081900360200190f35b3480156102bc57600080fd5b5061029e610d58565b3480156102d157600080fd5b506101db610d8d565b3480156102e657600080fd5b5061029e610da9565b3480156102fb57600080fd5b5061028773ffffffffffffffffffffffffffffffffffffffff60043516610daf565b34801561032957600080fd5b5061029e610f52565b34801561033e57600080fd5b5061019d73ffffffffffffffffffffffffffffffffffffffff60043516610f58565b34801561036c57600080fd5b5061029e610f5e565b34801561038157600080fd5b5061029e610f8e565b34801561039657600080fd5b50610287600435610fb9565b3480156103ae57600080fd5b5061028773ffffffffffffffffffffffffffffffffffffffff600435166110e0565b3480156103dc57600080fd5b506101db611402565b3480156103f157600080fd5b50604080516020600460443581810135838102808601850190965280855261019d95833573ffffffffffffffffffffffffffffffffffffffff1695602480359636969560649593949201929182918501908490808284375094975061141e9650505050505050565b34801561046557600080fd5b506101db6115ae565b34801561047a57600080fd5b5061029e611670565b34801561048f57600080fd5b506101db611679565b3480156104a457600080fd5b506102876004356116a4565b3480156104bc57600080fd5b5061019d61186f565b3480156104d157600080fd5b5061028773ffffffffffffffffffffffffffffffffffffffff600435811690602435166044356064356118a0565b34801561050b57600080fd5b50610514611b22565b6040805160208082528351818301528351919283929083019185019080838360005b8381101561054e578181015183820152602001610536565b50505050905090810190601f16801561057b5780820380516001836020036101000a031916815260200191505b509250505060405180910390f35b34801561059557600080fd5b5061029e611b59565b60006105a982611b65565b806105f557507fffffffff0000000000000000000000000000000000000000000000000000000082167f54053e6c00000000000000000000000000000000000000000000000000000000145b92915050565b600080610606610f8e565b9050801580159061061e57508061061b611baf565b10155b91505090565b60025473ffffffffffffffffffffffffffffffffffffffff1681565b600061064a6115ae565b73ffffffffffffffffffffffffffffffffffffffff166304bf2a7f836040518263ffffffff167c01000000000000000000000000000000000000000000000000000000000281526004018080602001828103825283818151815260200191508051906020019080838360005b838110156106ce5781810151838201526020016106b6565b50505050905090810190601f1680156106fb5780820380516001836020036101000a031916815260200191505b5092505050602060405180830381600087803b15801561071a57600080fd5b505af115801561072e573d6000803e3d6000fd5b505050506040513d602081101561074457600080fd5b505192915050565b6000610756611679565b73ffffffffffffffffffffffffffffffffffffffff166332f0a3b56040518163ffffffff167c0100000000000000000000000000000000000000000000000000000000028152600401602060405180830381600087803b1580156107b957600080fd5b505af11580156107cd573d6000803e3d6000fd5b505050506040513d60208110156107e357600080fd5b5051905090565b600154600254604080517fe3d670d700000000000000000000000000000000000000000000000000000000815273ffffffffffffffffffffffffffffffffffffffff928316600482015290516000938493849384938493849384938493919092169163e3d670d791602480830192602092919082900301818787803b15801561087257600080fd5b505af1158015610886573d6000803e3d6000fd5b505050506040513d602081101561089c57600080fd5b5051600254604080517f18160ddd0000000000000000000000000000000000000000000000000000000081529051929a5073ffffffffffffffffffffffffffffffffffffffff909116916318160ddd916004808201926020929091908290030181600087803b15801561090e57600080fd5b505af1158015610922573d6000803e3d6000fd5b505050506040513d602081101561093857600080fd5b5051600354909750610968906402540be4009061095c908a9063ffffffff611bb316565b9063ffffffff611c8116565b95506109976402540be40061098b8a670de0b6b3a764000063ffffffff611bb316565b9063ffffffff611bb316565b94506109a9858863ffffffff611c8116565b93506109c060035485611c8190919063ffffffff16565b9250670de0b6b3a7640000831115610b80576109e6670de0b6b3a7640000840388611d38565b9150878211806109f7575085828903105b15610a0f57610a0c888763ffffffff611dbb16565b91505b60008054600154604080517f46ee3c59000000000000000000000000000000000000000000000000000000008152905173ffffffffffffffffffffffffffffffffffffffff93841694639dc29fac94909316926346ee3c5992600480820193602093909283900390910190829087803b158015610a8b57600080fd5b505af1158015610a9f573d6000803e3d6000fd5b505050506040513d6020811015610ab557600080fd5b5051604080517c010000000000000000000000000000000000000000000000000000000063ffffffff851602815273ffffffffffffffffffffffffffffffffffffffff90921660048301526024820186905251604480830192600092919082900301818387803b158015610b2857600080fd5b505af1158015610b3c573d6000803e3d6000fd5b5050604080518581526000602082015281517ff13d97cf38a01dc931bd15e0cc4f0fe180ac4f10be05097f649b80c3861b2a859450908190039091019150a1610d3d565b670de0b6b3a7640000831015610d3d57610ba483670de0b6b3a76400000388611d38565b905085610bb7898363ffffffff611e6616565b1115610bd057610bcd868963ffffffff611dbb16565b90505b60008054600154604080517f46ee3c59000000000000000000000000000000000000000000000000000000008152905173ffffffffffffffffffffffffffffffffffffffff938416946340c10f1994909316926346ee3c5992600480820193602093909283900390910190829087803b158015610c4c57600080fd5b505af1158015610c60573d6000803e3d6000fd5b505050506040513d6020811015610c7657600080fd5b5051604080517c010000000000000000000000000000000000000000000000000000000063ffffffff851602815273ffffffffffffffffffffffffffffffffffffffff90921660048301526024820185905251604480830192600092919082900301818387803b158015610ce957600080fd5b505af1158015610cfd573d6000803e3d6000fd5b5050604080518481526001602082015281517ff13d97cf38a01dc931bd15e0cc4f0fe180ac4f10be05097f649b80c3861b2a859450908190039091019150a15b610d45611f0b565b6005555050505050505050565b60055481565b604080517f5550444154455f53455454494e47535f524f4c450000000000000000000000008152905190819003601401902081565b60005473ffffffffffffffffffffffffffffffffffffffff1681565b60035481565b604080517f5550444154455f53455454494e47535f524f4c450000000000000000000000008152815190819003601401812060008083526020830190935291610dfe9133918491905b5061141e565b60408051808201909152600f81527f4150505f415554485f4641494c454400000000000000000000000000000000006020820152901515610ed7576040517f08c379a00000000000000000000000000000000000000000000000000000000081526004018080602001828103825283818151815260200191508051906020019080838360005b83811015610e9c578181015183820152602001610e84565b50505050905090810190601f168015610ec95780820380516001836020036101000a031916815260200191505b509250505060405180910390fd5b506001805473ffffffffffffffffffffffffffffffffffffffff84167fffffffffffffffffffffffff0000000000000000000000000000000000000000909116811790915560408051918252517f0ee2d5774b3eb8cc2af8abecf615af6dbb2caed74fef4a5bd7f0a509adcd50d29181900360200190a15050565b60045481565b50600190565b6000610f897fd625496217aa6a3453eecb9c3489dc5a53e6c67b444329ea2b2cbc9ff547639b611f0f565b905090565b6000610f897febb05b386a8d34882b8711d156f463690983dc47815980fb82aeeff1aa43579e611f0f565b604080517f5550444154455f53455454494e47535f524f4c450000000000000000000000008152815190819003601401812060008083526020830190935291611006913391849190610df8565b60408051808201909152600f81527f4150505f415554485f4641494c4544000000000000000000000000000000000060208201529015156110a3576040517f08c379a000000000000000000000000000000000000000000000000000000000815260040180806020018281038252838181518152602001915080519060200190808383600083811015610e9c578181015183820152602001610e84565b5060048290556040805183815290517fb71ad9074bf52a049829fcaa079e6f2ed57be707131564eee62199755e7ebc059181900360200190a15050565b60008060006110ee84610f58565b60408051808201909152601281527f5245434f5645525f444953414c4c4f5745440000000000000000000000000000602082015290151561118b576040517f08c379a000000000000000000000000000000000000000000000000000000000815260040180806020018281038252838181518152602001915080519060200190808383600083811015610e9c578181015183820152602001610e84565b5061119461074c565b925061119f83611f17565b60408051808201909152601a81527f5245434f5645525f5641554c545f4e4f545f434f4e5452414354000000000000602082015290151561123c576040517f08c379a000000000000000000000000000000000000000000000000000000000815260040180806020018281038252838181518152602001915080519060200190808383600083811015610e9c578181015183820152602001610e84565b5073ffffffffffffffffffffffffffffffffffffffff841615156112a7576040513031925073ffffffffffffffffffffffffffffffffffffffff84169083156108fc029084906000818181858888f193505050501580156112a1573d6000803e3d6000fd5b50611397565b50826112cf73ffffffffffffffffffffffffffffffffffffffff82163063ffffffff611f5116565b91506112f873ffffffffffffffffffffffffffffffffffffffff8216848463ffffffff61208a16565b60408051808201909152601d81527f5245434f5645525f544f4b454e5f5452414e534645525f4641494c45440000006020820152901515611395576040517f08c379a000000000000000000000000000000000000000000000000000000000815260040180806020018281038252838181518152602001915080519060200190808383600083811015610e9c578181015183820152602001610e84565b505b8373ffffffffffffffffffffffffffffffffffffffff168373ffffffffffffffffffffffffffffffffffffffff167f596caf56044b55fb8c4ca640089bbc2b63cae3e978b851f5745cbb7c5b288e02846040518082815260200191505060405180910390a350505050565b60015473ffffffffffffffffffffffffffffffffffffffff1681565b6000806114296105fb565b151561143857600091506115a6565b611440611679565b905073ffffffffffffffffffffffffffffffffffffffff8116151561146857600091506115a6565b8073ffffffffffffffffffffffffffffffffffffffff1663fdef910686308761149088612122565b6040517c010000000000000000000000000000000000000000000000000000000063ffffffff871602815273ffffffffffffffffffffffffffffffffffffffff808616600483019081529085166024830152604482018490526080606483019081528351608484015283519192909160a490910190602085019080838360005b83811015611528578181015183820152602001611510565b50505050905090810190601f1680156115555780820380516001836020036101000a031916815260200191505b5095505050505050602060405180830381600087803b15801561157757600080fd5b505af115801561158b573d6000803e3d6000fd5b505050506040513d60208110156115a157600080fd5b505191505b509392505050565b6000806115b9611679565b604080517fbe00bbd80000000000000000000000000000000000000000000000000000000081527fd6f028ca0e8edb4a8c9757ca4fdccab25fa1e0317da1188108f7d2dee14902fb60048201527fddbcfd564f642ab5627cf68b9b7d374fb4f8a36e941a75d89c87998cef03bd616024820152905173ffffffffffffffffffffffffffffffffffffffff929092169163be00bbd8916044808201926020929091908290030181600087803b15801561071a57600080fd5b6402540be40081565b6000610f897f4172f0f7d2289153072b0a6ca36959e0cbe2efc3afe50fc81636caa96338137b611f0f565b604080517f5550444154455f53455454494e47535f524f4c4500000000000000000000000081528151908190036014018120600080835260208301909352916116f1913391849190610df8565b60408051808201909152600f81527f4150505f415554485f4641494c45440000000000000000000000000000000000602082015290151561178e576040517f08c379a000000000000000000000000000000000000000000000000000000000815260040180806020018281038252838181518152602001915080519060200190808383600083811015610e9c578181015183820152602001610e84565b5060408051808201909152601e81527f49535355414e43455f5441524745545f524154494f5f544f4f5f48494748000060208201526402540be400831115611832576040517f08c379a000000000000000000000000000000000000000000000000000000000815260040180806020018281038252838181518152602001915080519060200190808383600083811015610e9c578181015183820152602001610e84565b5060038290556040805183815290517f8d1daaef322a8da0aa5f1e18b9f479e4a93255f4c5f77105ee49741eac4273859181900360200190a15050565b60007fffffffffffffffffffffffffffffffffffffffffffffffffffffffffffffffff61189a610f8e565b14905090565b6118a8610f8e565b60408051808201909152601881527f494e49545f414c52454144595f494e495449414c495a4544000000000000000060208201529015611944576040517f08c379a000000000000000000000000000000000000000000000000000000000815260040180806020018281038252838181518152602001915080519060200190808383600083811015610e9c578181015183820152602001610e84565b5060408051808201909152601e81527f49535355414e43455f5441524745545f524154494f5f544f4f5f48494748000060208201526402540be4008311156119e8576040517f08c379a000000000000000000000000000000000000000000000000000000000815260040180806020018281038252838181518152602001915080519060200190808383600083811015610e9c578181015183820152602001610e84565b50600080547fffffffffffffffffffffffff000000000000000000000000000000000000000090811673ffffffffffffffffffffffffffffffffffffffff87811691821784556001805490931690871617909155604080517ffc0c546a0000000000000000000000000000000000000000000000000000000081529051919263fc0c546a926004808401936020939083900390910190829087803b158015611a8f57600080fd5b505af1158015611aa3573d6000803e3d6000fd5b505050506040513d6020811015611ab957600080fd5b5051600280547fffffffffffffffffffffffff00000000000000000000000000000000000000001673ffffffffffffffffffffffffffffffffffffffff90921691909117905560038290556004819055611b11611f0b565b600555611b1c61212c565b50505050565b60408051808201909152601e81527f49535355414e43455f5441524745545f524154494f5f544f4f5f484947480000602082015281565b670de0b6b3a764000081565b7fffffffff0000000000000000000000000000000000000000000000000000000081167f01ffc9a70000000000000000000000000000000000000000000000000000000014919050565b4390565b600080831515611bc65760009150611c7a565b50828202828482811515611bd657fe5b60408051808201909152601181527f4d4154485f4d554c5f4f564552464c4f5700000000000000000000000000000060208201529291900414611c75576040517f08c379a000000000000000000000000000000000000000000000000000000000815260040180806020018281038252838181518152602001915080519060200190808383600083811015610e9c578181015183820152602001610e84565b508091505b5092915050565b60408051808201909152600d81527f4d4154485f4449565f5a45524f0000000000000000000000000000000000000060208201526000908190818411611d23576040517f08c379a000000000000000000000000000000000000000000000000000000000815260040180806020018281038252838181518152602001915080519060200190808383600083811015610e9c578181015183820152602001610e84565b508284811515611d2f57fe5b04949350505050565b600080600080611d58600554611d4c611f0b565b9063ffffffff611dbb16565b92506301e1338086049150600354611d806402540be400600454611bb390919063ffffffff16565b811515611d8957fe5b049050670de0b6b3a7640000611da78661098b8661098b878761220b565b811515611db057fe5b049695505050505050565b60408051808201909152601281527f4d4154485f5355425f554e444552464c4f5700000000000000000000000000006020820152600090819084841115611e5e576040517f08c379a000000000000000000000000000000000000000000000000000000000815260040180806020018281038252838181518152602001915080519060200190808383600083811015610e9c578181015183820152602001610e84565b505050900390565b60408051808201909152601181527f4d4154485f4144445f4f564552464c4f5700000000000000000000000000000060208201526000908383019084821015611c75576040517f08c379a000000000000000000000000000000000000000000000000000000000815260040180806020018281038252838181518152602001915080519060200190808383600083811015610e9c578181015183820152602001610e84565b4290565b5490565b5490565b60008073ffffffffffffffffffffffffffffffffffffffff83161515611f405760009150611f4b565b823b90506000811191505b50919050565b6040805173ffffffffffffffffffffffffffffffffffffffff83166024808301919091528251808303909101815260449091019091526020810180517bffffffffffffffffffffffffffffffffffffffffffffffffffffffff167f70a08231000000000000000000000000000000000000000000000000000000001790526000908180611fde8684612223565b60408051808201909152601c81527f534146455f4552435f32305f42414c414e43455f52455645525445440000000060208201529193509150821515612080576040517f08c379a000000000000000000000000000000000000000000000000000000000815260040180806020018281038252838181518152602001915080519060200190808383600083811015610e9c578181015183820152602001610e84565b5095945050505050565b6040805173ffffffffffffffffffffffffffffffffffffffff8416602482015260448082018490528251808303909101815260649091019091526020810180517bffffffffffffffffffffffffffffffffffffffffffffffffffffffff167fa9059cbb000000000000000000000000000000000000000000000000000000001790526000906121198582612254565b95945050505050565b8051602002815290565b612134610f8e565b60408051808201909152601881527f494e49545f414c52454144595f494e495449414c495a45440000000000000000602082015290156121d0576040517f08c379a000000000000000000000000000000000000000000000000000000000815260040180806020018281038252838181518152602001915080519060200190808383600083811015610e9c578181015183820152602001610e84565b506122096121dc611baf565b7febb05b386a8d34882b8711d156f463690983dc47815980fb82aeeff1aa43579e9063ffffffff6122a216565b565b600081831061221a578161221c565b825b9392505050565b6000806000806040516020818751602089018a5afa9250600083111561224857805191505b50909590945092505050565b6000806040516020818551602087016000895af16000811115612298573d8015612285576020811461228e57612296565b60019350612296565b600183511493505b505b5090949350505050565b90555600a165627a7a723058208d138f6d1f927e30d367d0fa489de428a734df2344d8faf84fb87c7a5c29f7750029ebb05b386a8d34882b8711d156f463690983dc47815980fb82aeeff1aa43579e",
  "devdoc": {
    "methods": {
      "allowRecoverability(address)": {
        "details": "By default deriving from AragonApp makes it recoverable",
        "params": {
          "token": "Token address that would be recovered"
        },
        "return": "bool whether the app allows the recovery"
      },
      "canPerform(address,bytes32,uint256[])": {
        "details": "Check whether an action can be performed by a sender for a particular role on this app",
        "params": {
          "_params": "Permission params for the role",
          "_role": "Role on this app",
          "_sender": "Sender of the call"
        },
        "return": "Boolean indicating whether the sender has the permissions to perform the action.        Always returns false if the app hasn't been initialized yet."
      },
      "getInitializationBlock()": {
        "return": "Block number in which the contract was initialized"
      },
      "getRecoveryVault()": {
        "details": "Get the recovery vault for the app",
        "return": "Recovery vault address for the app"
      },
      "hasInitialized()": {
        "return": "Whether the contract has been initialized by the time of the current block"
      },
      "initialize(address,address,uint256,uint256)": {
        "params": {
          "_commonPoolFundsManager": "Funds manager managing common pools token balance",
          "_commonPoolTokenManager": "Token Manager managing the common pool token",
          "_maxAdjustmentRatioPerSecond": "Eg A max adjustment ratio of 0.1 would be 0.1 / 31536000 (seconds in year) = 0.000000003170979198 adjusted by multiplying by EXTRA_PRECISION = 3170979198",
          "_targetRatio": "Fractional ratio value multiplied by RATIO_PRECISION, eg target ratio of 0.2 would be 2e9"
        }
      },
      "supportsInterface(bytes4)": {
        "details": "Query if a contract implements a certain interface",
        "params": {
          "_interfaceId": "The interface identifier being queried, as specified in ERC-165"
        },
        "return": "True if the contract implements the requested interface and if its not 0xffffffff, false otherwise"
      },
      "transferToVault(address)": {
        "params": {
          "_token": "Token balance to be sent to recovery vault."
        }
      },
      "updateFundsManager(address)": {
        "params": {
          "_commonPoolFundsManager": "The new funds manager"
        }
      },
      "updateMaxAdjustmentRatioPerSecond(uint256)": {
        "params": {
          "_maxAdjustmentRatioPerSecond": "The new max adjustment ratio per second"
        }
      },
      "updateTargetRatio(uint256)": {
        "params": {
          "_targetRatio": "The new target ratio"
        }
      }
    }
  },
  "userdoc": {
    "methods": {
      "executeAdjustment()": {
        "notice": "Execute the adjustment to the total supply of the common pool token and burn or mint to the common pool vault"
      },
      "initialize(address,address,uint256,uint256)": {
        "notice": "Initialise the Issuance app"
      },
      "transferToVault(address)": {
        "notice": "Send funds to recovery Vault. This contract should never receive funds,        but in case it does, this function allows one to recover them."
      },
      "updateFundsManager(address)": {
        "notice": "Update the funds manager"
      },
      "updateMaxAdjustmentRatioPerSecond(uint256)": {
        "notice": "Update the max adjustment ratio per second to `_maxAdjustmentRatioPerSecond`"
      },
      "updateTargetRatio(uint256)": {
        "notice": "Update the target ratio to `_targetRatio`"
      }
    }
  }
}